:020000040000FA
:100000000C9462000C948A000C948A000C948A0070
:100010000C948A000C948A000C948A000C948A0038
:100020000C948A000C948A000C948A000C948A0028
:100030000C948A000C948A000C948A000C948A0018
:100040000C943F050C948A000C94AF050C94890520
:100050000C948A000C948A000C948A000C948A00F8
:100060000C948A000C948A000000000024002700F1
:100070002A0000000000250028002B0000000000DE
:1000800023002600290004040404040404040202DA
:100090000202020203030303030301020408102007
:1000A0004080010204081020010204081020000012
:1000B0000008000201000003040700000000000027
:1000C0000000E10511241FBECFEFD8E0DEBFCDBF99
:1000D00012E0A0E0B1E0E0E5F8E102C005900D9289
:1000E000A631B107D9F723E0A6E1B2E001C01D9225
:1000F000A235B207E1F710E0C2E6D0E004C02197D4
:10010000FE010E94110CC136D107C9F70E94990661
:100110000C94260C0C94000096E0899FD0011124C9
:10012000A553BD4F90967C936E935F9791E0919607
:100130009C939197E0913803F091390390913703A4
:10014000992339F0309751F0811108C08091E7026E
:100150000994309719F05C968C91FACF0895CF925C
:10016000DF92EF92FF920F931F9396E0899FF00129
:100170001124E553FD4F11A2278D30A12130310507
:1001800051F178F02230310509F451C023303105A6
:1001900009F452C01F910F91FF90EF90DF90CF9024
:1001A00008956623B9F361E070E00E948C002FB7D8
:1001B000F89480912A0290912B02A0912C02B09188
:1001C0002D022FBF8093230390932403A093250334
:1001D000B0932603DFCF9FB7F894C0902A02D09047
:1001E0002B02E0902C02F0902D029FBF0091230380
:1001F000109124032091250330912603C01AD10ABF
:10020000E20AF30A009135031091360330E020E052
:100210000C151D052E053F0550F462E070E01F919E
:100220000F91FF90EF90DF90CF900C948C006111B4
:10023000B1CF63E070E0F3CF70E060E0F0CF8330E7
:1002400081F028F4813099F08230A9F00895873048
:10025000A9F08830C9F08430B1F4809180008F7D9E
:1002600003C0809180008F7780938000089584B5CB
:100270008F7784BD089584B58F7DFBCF8091B000CA
:100280008F778093B00008958091B0008F7DF9CF73
:10029000CF93DF93282F30E0F901E255FF4F84918F
:1002A000F901E656FF4FD491F901EA57FF4FC49187
:1002B000CC23A1F081110E941F01EC2FF0E0EE0F82
:1002C000FF1FE458FF4FA591B491EC91ED2381E01D
:1002D00090E009F480E0DF91CF91089580E090E014
:1002E000FACF1F93CF93DF93282F30E0F901E25527
:1002F000FF4F8491F901E656FF4FD491F901EA5777
:10030000FF4FC491CC23A9F0162F81110E941F0129
:10031000EC2FF0E0EE0FFF1FEE58FF4FA591B491C8
:100320008FB7F894EC91111108C0D095DE23DC93BF
:100330008FBFDF91CF911F910895DE2BF8CFCF9320
:10034000DF9390E0FC01E656FF4F24918A579F4FC0
:10035000FC0184918823C9F090E0880F991FFC016B
:10036000E859FF4FA591B491FC01EE58FF4FC5919C
:10037000D49161110DC09FB7F8948C912095822380
:100380008C938881282328839FBFDF91CF91089584
:10039000623051F49FB7F8943C91822F809583236B
:1003A0008C93E8812E2BEFCF8FB7F894EC912E2B06
:1003B0002C938FBFEACF3FB7F8948091260290919B
:1003C0002702A0912802B091290226B5A89B05C05A
:1003D0002F3F19F00196A11DB11D3FBFBA2FA92FC4
:1003E000982F8827BC01CD01620F711D811D911DC1
:1003F00042E0660F771F881F991F4A95D1F708952D
:100400008F929F92AF92BF92CF92DF92EF92FF9224
:100410004B015C010E94DB016B017C010E94DB014E
:100420006C197D098E099F09683E7340810591050D
:10043000A8F321E0821A9108A108B10888EEC80E3D
:1004400083E0D81EE11CF11C81149104A104B104C5
:1004500029F7FF90EF90DF90CF90BF90AF909F90E3
:100460008F900895862F642F0C949F01862F642F00
:100470000C947101862F0C944801AF92BF92CF92D9
:10048000DF92EF92FF920F931F93CF93DF936C0154
:100490007B018B01040F151FEB015E01AE18BF0835
:1004A000C017D10759F06991D601ED91FC910190E7
:1004B000F081E02DC6010995892B79F7C501DF91FF
:1004C000CF911F910F91FF90EF90DF90CF90BF9051
:1004D000AF900895FC01538D448D252F30E0842F7B
:1004E00090E0821B930B541710F0CF96089501975C
:1004F0000895FC01918D828D981761F0A28DAE0F49
:10050000BF2FB11D5D968C91928D9F5F9F73928FCF
:1005100090E008958FEF9FEF0895FC01918D828DFB
:10052000981731F0828DE80FF11D858D90E00895C8
:100530008FEF9FEF0895FC01918D228D892F90E020
:10054000805C9F4F821B91098F73992708958EE2DB
:1005500092E00E949B0221E0892B09F420E0822F87
:10056000089580E090E0892B29F00E94A702811174
:100570000C9400000895FC01A48DA80FB92FB11DA3
:10058000A35ABF4F2C91848D90E001968F739927C9
:10059000848FA689B7892C93A089B1898C918370A7
:1005A00080648C93938D848D981306C00288F389A0
:1005B000E02D80818F7D80830895EF92FF920F93CD
:1005C0001F93CF93DF93EC0181E0888F9B8D8C8DFF
:1005D00098131AC0E889F989808185FF15C09FB7F3
:1005E000F894EE89FF896083E889F98980818370B6
:1005F000806480839FBF81E090E0DF91CF911F9165
:100600000F91FF90EF900895F62E0B8D10E00F5F85
:100610001F4F0F731127E02E8C8D8E110CC00FB65B
:1006200007FCFACFE889F989808185FFF5CFCE01F3
:100630000E94BB02F1CFEB8DEC0FFD2FF11DE35AB1
:10064000FF4FF0829FB7F8940B8FEA89FB89808176
:100650008062CFCFCF93DF93EC01888D8823B9F0F0
:10066000AA89BB89E889F9898C9185FD03C08081BD
:1006700086FD0DC00FB607FCF7CF8C9185FFF2CF3A
:10068000808185FFEDCFCE010E94BB02E9CFDF91D3
:10069000CF910895089590E080E00895CF93DF937F
:1006A000EC0160E08E810E94710161E08E810E9408
:1006B000710160E08E810E9471018BE891E00197E9
:1006C000F1F7DF91CF910895CF92DF92EF92FF92F1
:1006D0000F931F93CF93DF936C017C0187E0E80EAB
:1006E000F11CD0E0C0E0062F10E0B8010C2E02C0D3
:1006F000759567950A94E2F76170F70181917F0122
:100700000E9471012196C430D10579F7C601DF91AD
:10071000CF911F910F91FF90EF90DF90CF900C94AD
:100720004E03CF92DF92EF92FF920F931F93CF93DE
:10073000DF93EC01F62E642F8C810E9471018D8174
:100740008F3F19F060E00E9471010F2D10E08F853E
:1007500084FF25C06E0187E0C80ED11CF12CE12C6E
:10076000B8010E2C02C0759567950A94E2F7617086
:10077000F60181916F010E947101FFEFEF1AFF0AEC
:1007800088E0E816F10461F7CE01DF91CF911F9167
:100790000F91FF90EF90DF90CF900C944E03B80133
:1007A00084E0759567958A95E1F7CE010E94640310
:1007B0006F2DCE01DF91CF911F910F91FF90EF90A0
:1007C000DF90CF900C94640340E0682F8AE393E0BD
:1007D0000C94910381E00E94E4038BE39FE1019775
:1007E000F1F70895CF93DF93823029F49091490374
:1007F00098609093490380934D0310924E0380E4D8
:1008000080934F0380E18093500380E580935103F0
:1008100061E080913E030E949F0180913F038F3FE2
:1008200019F061E00E949F0161E0809140030E9405
:100830009F01CAE3D3E09E012A53334080914903CC
:1008400084FD0BC084E090E021962817390744F41A
:1008500061E08E810E949F01EECF88E090E0F4CFAE
:100860008BE39DE00197F1F760E080913E030E94E9
:10087000710160E0809140030E94710180913F030B
:100880008F3F19F060E00E9471018091490384FD5F
:1008900034C063E08AE393E00E946403CBE4D6E4CF
:1008A000CE010197F1F763E08AE393E00E946403CD
:1008B0002197F1F763E08AE393E00E94640383E504
:1008C00092E00197F1F762E08AE393E00E9464030B
:1008D0008091490380620E94E40384E080934A038C
:1008E0008CE00E94E4030E94EA0382E080934B03C1
:1008F00086E0DF91CF910C94E40380620E94E403D0
:100900008BE496E40197F1F78091490380620E949D
:10091000E40383E592E00197F1F780914903806257
:100920000E94E403D5CF90914D03891710F08FEF0B
:10093000890FE82FF0E0E65CFC4F848980680C9416
:10094000E40341E00E94910381E090E00895FB01FF
:1009500001900020E9F73197AF01461B570BDC01EE
:10096000ED91FC910280F381E02D0994CF93DF9308
:10097000BC018EE292E00E94A704EC0160E471E009
:100980008EE292E00E94A7048C0F9D1FDF91CF9111
:100990000895CF92DF92EF92FF920F931F93CF9320
:1009A000DF93CDB7DEB7A1970FB6F894DEBF0FBEC9
:1009B000CDBF6B017C01F7FE3EC041E06DE28AE3F2
:1009C00093E00E94910322273327A9012C193D09A6
:1009D0004E095F0919A28E010F5D1F4F9AE0C92EC3
:1009E000D12CE12CF12CCA01B901A70196010E947A
:1009F000C50B605DF80162938F012115310541053A
:100A0000510589F790E080E0309729F0BF018AE333
:100A100093E00E94A7040196A1960FB6F894DEBF5A
:100A20000FBECDBFDF91CF911F910F91FF90EF903F
:100A3000DF90CF900895AC019B0119A28E010F5D4C
:100A40001F4F8AE0C82ED12CE12CF12CCA01B9012C
:100A5000A70196010E94C50B605DF80162938F01AA
:100A6000211531054105510589F790E080E0309767
:100A700099F2BF018AE393E00E94A704CDCF1F92B1
:100A80000F920FB60F9211242F933F938F939F9342
:100A9000AF93BF9380912A0290912B02A0912C02D8
:100AA000B0912D023091250223E0230F2D3758F508
:100AB0000196A11DB11D2093250280932A029093D7
:100AC0002B02A0932C02B0932D02809126029091CC
:100AD0002702A0912802B09129020196A11DB11D03
:100AE0008093260290932702A0932802B0932902B4
:100AF000BF91AF919F918F913F912F910F900FBE1A
:100B00000F901F90189526E8230F0296A11DB11D86
:100B1000D2CF1F920F920FB60F9211242F933F93B3
:100B20004F935F936F937F938F939F93AF93BF93F5
:100B3000EF93FF938EE292E00E94BB02FF91EF9150
:100B4000BF91AF919F918F917F916F915F914F91E5
:100B50003F912F910F900FBE0F901F9018951F92ED
:100B60000F920FB60F9211242F938F939F93EF93B1
:100B7000FF93E0913E02F0913F028081E0914402B8
:100B8000F091450282FD1BC09081809147028F5FEA
:100B90008F7320914802821741F0E0914702F0E004
:100BA000E25DFD4F958F80934702FF91EF919F91FA
:100BB0008F912F910F900FBE0F901F9018958081ED
:100BC000F4CF109231021092300288EE93E0A0E050
:100BD000B0E08093320290933302A0933402B0933A
:100BE00035028CE191E090932F0280932E0285ECE8
:100BF00090E090933B0280933A0284EC90E09093D3
:100C00003D0280933C0280EC90E090933F02809301
:100C10003E0281EC90E0909341028093400282EC8E
:100C200090E0909343028093420286EC90E0909390
:100C3000450280934402109247021092480210929B
:100C4000490210924A0210923D0310923C0388E33D
:100C500091E090933B0380933A0310923E038FEF11
:100C600080933F0381E08093400382E080934103BF
:100C700083E08093420384E08093430385E0809384
:100C800044031092450310924603109247031092BA
:100C900048031092490381E00E94F2031092CD02B2
:100CA0001092D1021092D0021092D2028EE291E004
:100CB0009093CC028093CB02E7EEF2E01082148294
:100CC00013821582369683E0E332F807B9F784E0A1
:100CD00091E090932E0380932D0380E091E0909318
:100CE000300380932F0384E0809331038093320399
:100CF00088E091E090932C0380932B038AE090E0AE
:100D0000909334038093330384EF91E09093360300
:100D10008093350310923903109238031092270301
:100D2000109228031092290310922A03109237037D
:100D30000895789484B5826084BD84B5816084BD53
:100D400085B5826085BD85B5816085BD80916E0069
:100D5000816080936E00109281008091810082609A
:100D600080938100809181008160809381008091D7
:100D700080008160809380008091B10084608093C6
:100D8000B1008091B00081608093B00080917A00C2
:100D9000846080937A0080917A00826080937A00E8
:100DA00080917A00816080937A0080917A008068D7
:100DB00080937A001092C100E0913E02F0913F02D0
:100DC00082E08083E0913A02F0913B021082E09150
:100DD0003C02F0913D028FEC808310924602E0913C
:100DE0004202F091430286E08083E0914002F0915C
:100DF0004102808180618083E0914002F091410254
:100E0000808188608083E0914002F091410280817E
:100E100080688083E0914002F091410280818F7D63
:100E2000808382E00E94F20380E00E94930463E4E6
:100E300071E08AE393E00E94A70481E00E9493049A
:100E40006CE471E08AE393E00E94A70468EB7BE026
:100E500080E090E00E94000280E00E9493046EE532
:100E600071E08AE393E00E94A70460ED77E080E000
:100E700090E00E9400020E94EA0365E0462E512C99
:100E8000612C712C22242A94322C50E0852E50E0C3
:100E9000952E609124028EE292E00E94DD0281E0B4
:100EA000809337038FB7F89440912A0250912B0218
:100EB00060912C0270912D028FBF80912703909139
:100EC0002803A0912903B0912A03481B590B6A0BF0
:100ED0007B0B8091330390913403B0E0A0E0841742
:100EE0009507A607B70708F082C1C0E080913103DB
:100EF000C81760F4E0912D03F0912E03EC0FF11D63
:100F000062E080810E949F01CF5FF0CFB12C809181
:100F10003203B81608F061C00B2D10E0E0912F03EA
:100F2000F0913003E00FF11F61E080810E949F018A
:100F3000E0912F03F0913003E00FF11F60E080811A
:100F40000E94710181E090E0A0E0B0E00B2C04C0B1
:100F5000880F991FAA1FBB1F0A94D2F76C017C014E
:100F6000E094F094A12C80913103A816F8F4CA2DD6
:100F7000D0E0E0912D03F0912E03EC0FFD1F808156
:100F80000E9448012496CC0FDD1FC553DD4F892BED
:100F900041F4888199818C299D2999838883A39420
:100FA000E2CF888199818E219F21F7CFE0912F0395
:100FB000F0913003E00FF11F61E080810E94710128
:100FC00080912F0390913003080F191F60E0D80122
:100FD0008C910E949F01B3949ACF2BECC22E22E0F9
:100FE000D22EE6018F8D98A1892B21F41C8E3E8E86
:100FF0002D8E19A22696E7E0F3E0EC17FD0791F796
:1010000010E096E0B92E80913103181708F052C015
:1010100000E0E12EF12CEE0CFF1C97012D523D4F0C
:10102000790120913203021708F042C0D7016D9177
:101030007C91002E02C0769567950A94E2F7129F84
:1010400090011124200F311DEBECF2E080E0458D82
:10105000568D2417350709F486C38F5F36968A307C
:10106000B1F760FF23C0EBECF2E090E080E0448D4C
:10107000411117C0E0912B03F0912C03E20FF31FF5
:101080006081B89EF001B99EF00D1124E553FD4F2B
:10109000648F368F258F10A2178E61E00E94AF00FB
:1010A00005C0019636968A30910509F70F5FB9CFD2
:1010B0001F5FA9CF80E0F60191A19111892FF6E081
:1010C000CF0ED11CCC16DD06B1F79FB7F894409136
:1010D0002A0250912B0260912C0270912D029FBF29
:1010E00040932703509328036093290370932A03A6
:1010F000882309F47CC08091EC02882309F477C02E
:101100008091EA029091EB02019709F070C0C091C2
:10111000E702C0932402C1116FC0C0901F02D0909B
:101120002002E0902102F090220280912302882385
:10113000C9F080911E028B3209F0D3C280911A024D
:1011400090911B02A0911C02B0911D028C0D9D1D5F
:10115000AE1DBF1D8093160290931702A093180234
:10116000B093190280E00E949304C701B6010E9467
:10117000C90441E060911E028AE393E00E9491035A
:1011800060911A0270911B0280911C0290911D02C5
:101190000E94C90480912302882381F063E172E0F8
:1011A0008AE393E00E94A7046091160270911702EF
:1011B00080911802909119020E94C90481E00E9456
:1011C0009304609116027091170280911802909119
:1011D00019020E94C9048114910409F45ACE0E9494
:1011E000A702882309F44ECE0E9400004BCE109235
:1011F00037031092240291CF0E94EA03CA32F1F41D
:1012000081E791E00E94B60410921A0210921B022C
:1012100010921C0210921D0210921F0210922002C6
:1012200010922102109222021092160210921702BE
:101230001092180210921902109223028091240237
:101240008133F1F48FE791E00E94B60420911602F9
:101250003091170240911802509119022115310561
:101260004105510509F0A4C121E030E040E050E023
:1012700020931602309317024093180250931902DC
:10128000809124028433F1F488E891E00E94B6044E
:1012900020911602309117024091180250911902C4
:1012A000211531054105510509F093C184E090E015
:1012B000A0E0B0E08093160290931702A09318026A
:1012C000B0931902809124028733F1F481E991E00F
:1012D0000E94B60420911602309117024091180224
:1012E00050911902211531054105510509F082C1BE
:1012F00027E030E040E050E02093160230931702E0
:101300004093180250931902809124028033E9F42B
:101310008AE991E00E94B6042091160230911702EA
:1013200040911802509119022115310541055105CE
:1013300061F0AAE0B0E00E94060C60931602709380
:10134000170280931802909319028091240282332D
:10135000F1F483EA91E00E94B604209116023091E4
:1013600017024091180250911902211531054105CB
:10137000510509F050C182E090E0A0E0B0E0809318
:10138000160290931702A0931802B093190280914D
:1013900024028533D1F48CEA91E00E94B6042091B6
:1013A000160230911702409118025091190221152E
:1013B00031054105510509F03FC140921602509296
:1013C00017026092180270921902809124028833E9
:1013D000F1F485EB91E00E94B60420911602309161
:1013E000170240911802509119022115310541054B
:1013F000510509F032C128E030E040E050E0209390
:1014000016023093170240931802509319028091EC
:1014100024028332B9F48EEB91E00E94B6048091ED
:10142000160290911702A0911802B09119028093B0
:101430001A0290931B02A0931C02B0931D0281E03C
:1014400080932302809124028333F1F48BEC91E0AA
:101450000E94B604209116023091170240911802A2
:1014600050911902211531054105510509F006C1B8
:1014700083E090E0A0E0B0E0809316029093170222
:10148000A0931802B0931902809124028633F1F4DC
:1014900084ED91E00E94B60420911602309117026B
:1014A000409118025091190221153105410551054D
:1014B00009F0F5C026E030E040E050E0209316024D
:1014C000309317024093180250931902809124021E
:1014D0008933F1F48DED91E00E94B604209116025B
:1014E00030911702409118025091190221153105CF
:1014F0004105510509F0E4C089E090E0A0E0B0E0CA
:101500008093160290931702A0931802B0931902C9
:10151000809124029FEB980F943008F0FECD40910B
:1015200016025091170260911802709119024093AF
:101530001F025093200260932102709322021092A6
:10154000160210921702109218021092190281349A
:1015500039F486EE91E00E94B6048BE280931E027D
:1015600080912402823439F48FEE91E00E94B60417
:101570008DE280931E0280912402833439F48BEF34
:1015800091E00E94B6048AE280931E0280912402B8
:10159000843439F48AE092E00E94B6048FE28093AA
:1015A0001E0264E670E080E090E00E940002B5CD8B
:1015B000AAE0B0E00E94060C6F5F7F4F8F4F9F4FF5
:1015C0006093160270931702809318029093190289
:1015D00057CEAAE0B0E00E94060C6C5F7F4F8F4FA1
:1015E0009F4F609316027093170280931802909396
:1015F000190268CEAAE0B0E00E94060C695F7F4F36
:101600008F4F9F4F609316027093170280931802BA
:101610009093190279CEAAE0B0E00E94060C6E5FAA
:101620007F4F8F4F9F4F60931602709317028093E6
:10163000180290931902ABCEAAE0B0E00E94060C0B
:101640006B5F7F4F8F4F9F4F60931602709317020F
:101650008093180290931902B8CEAAE0B0E00E94DD
:10166000060C685F7F4F8F4F9F4F609316027093F9
:1016700017028093180290931902C9CEAAE0B0E035
:101680000E94060C6D5F7F4F8F4F9F4F6093160235
:10169000709317028093180290931902F5CEAAE076
:1016A000B0E00E94060C6A5F7F4F8F4F9F4F6093A0
:1016B000160270931702809318029093190206CFB6
:1016C000AAE0B0E00E94060C675F7F4F8F4F9F4FEC
:1016D0006093160270931702809318029093190278
:1016E00017CF8D3289F480911A0290911B02A0913C
:1016F0001C02B0911D02A7019601281B390B4A0B51
:101700005B0BDA01C90126CD8A32A9F420911A02B5
:1017100030911B0240911C0250911D02C701B6017D
:101720000E94B50B60931602709317028093180203
:101730009093190217CD8F3209F014CD20911A021F
:1017400030911B0240911C0250911D02C701B6014D
:101750000E94E70B20931602309317024093180261
:1017600050931902FFCC617099CCDB018F939F934A
:101770000E94060CBF91AF91A29F800D911DA39F67
:10178000900DB29F900D11240895A1E21A2EAA1B6C
:10179000BB1BFD010DC0AA1FBB1FEE1FFF1FA21721
:1017A000B307E407F50720F0A21BB30BE40BF50B1E
:1017B000661F771F881F991F1A9469F760957095A7
:1017C000809590959B01AC01BD01CF010895052E38
:1017D00097FB1EF400940E94FE0B57FD07D00E9459
:1017E000C50B07FC03D04EF40C94FE0B50954095AE
:1017F000309521953F4F4F4F5F4F089590958095BD
:10180000709561957F4F8F4F9F4F08950E94170CE1
:10181000A59F900DB49F900DA49F800D911D112444
:101820000895EE0FFF1F0590F491E02D0994A29FFB
:10183000B001B39FC001A39F700D811D1124911DA4
:10184000B29F700D811D1124911D0895F894FFCF52
:10185000090807060D0C0B0A37383944343536436E
:10186000313233422A30234100000000DD023D02C4
:101870006A022A039B0279028D02000000003202F4
:1018800036023A0200000000A1043D024B034A0365
:101890000D0A0047444E2D434F44450050726F6A75
:1018A000656374732050726573656E747300417262
:1018B0006475696E6F2043616C63756C61746F72DF
:1018C00000427574746F6E2043616E63656C0042F4
:1018D0007574746F6E203100427574746F6E2034AD
:1018E00000427574746F6E203700427574746F6EA9
:1018F000203000427574746F6E203200427574742B
:101900006F6E203500427574746F6E20380042751A
:1019100074746F6E20457175616C00427574746FDC
:101920006E203300427574746F6E203600427574F9
:10193000746F6E2039004164646974696F6E00537E
:1019400075627472616374696F6E004D756C746951
:10195000706C69636174696F6E0044657665736964
:061960006F6E00203D0047
:107E0000112484B714BE81FFF0D085E080938100F7
:107E100082E08093C00088E18093C10086E0809377
:107E2000C20080E18093C4008EE0C9D0259A86E02C
:107E300020E33CEF91E0309385002093840096BBD3
:107E4000B09BFECF1D9AA8958150A9F7CC24DD24C4
:107E500088248394B5E0AB2EA1E19A2EF3E0BF2EE7
:107E6000A2D0813461F49FD0082FAFD0023811F036
:107E7000013811F484E001C083E08DD089C08234E0
:107E800011F484E103C0853419F485E0A6D080C0E4
:107E9000853579F488D0E82EFF2485D0082F10E0AE
:107EA000102F00270E291F29000F111F8ED06801E7
:107EB0006FC0863521F484E090D080E0DECF843638
:107EC00009F040C070D06FD0082F6DD080E0C81688
:107ED00080E7D80618F4F601B7BEE895C0E0D1E017
:107EE00062D089930C17E1F7F0E0CF16F0E7DF06D8
:107EF00018F0F601B7BEE89568D007B600FCFDCFD4
:107F0000A601A0E0B1E02C9130E011968C91119780
:107F100090E0982F8827822B932B1296FA010C0160
:107F200087BEE89511244E5F5F4FF1E0A038BF0790
:107F300051F7F601A7BEE89507B600FCFDCF97BE46
:107F4000E89526C08437B1F42ED02DD0F82E2BD052
:107F50003CD0F601EF2C8F010F5F1F4F84911BD097
:107F6000EA94F801C1F70894C11CD11CFA94CF0C13
:107F7000D11C0EC0853739F428D08EE10CD085E9AC
:107F80000AD08FE07ACF813511F488E018D01DD067
:107F900080E101D065CF982F8091C00085FFFCCF94
:107FA0009093C60008958091C00087FFFCCF809118
:107FB000C00084FD01C0A8958091C6000895E0E648
:107FC000F0E098E1908380830895EDDF803219F02E
:107FD00088E0F5DFFFCF84E1DECF1F93182FE3DFCA
:107FE0001150E9F7F2DF1F91089580E0E8DFEE27F6
:047FF000FF270994CA
:027FFE00040479
:00000001FF
